{
  "_format": "hh-sol-artifact-1",
  "contractName": "GradingSystem",
  "sourceName": "contracts/GradingSystem.sol",
  "abi": [
    {
      "inputs": [],
      "stateMutability": "nonpayable",
      "type": "constructor"
    },
    {
      "inputs": [
        {
          "internalType": "address",
          "name": "sender",
          "type": "address"
        },
        {
          "internalType": "uint256",
          "name": "tokenId",
          "type": "uint256"
        },
        {
          "internalType": "address",
          "name": "owner",
          "type": "address"
        }
      ],
      "name": "ERC721IncorrectOwner",
      "type": "error"
    },
    {
      "inputs": [
        {
          "internalType": "address",
          "name": "operator",
          "type": "address"
        },
        {
          "internalType": "uint256",
          "name": "tokenId",
          "type": "uint256"
        }
      ],
      "name": "ERC721InsufficientApproval",
      "type": "error"
    },
    {
      "inputs": [
        {
          "internalType": "address",
          "name": "approver",
          "type": "address"
        }
      ],
      "name": "ERC721InvalidApprover",
      "type": "error"
    },
    {
      "inputs": [
        {
          "internalType": "address",
          "name": "operator",
          "type": "address"
        }
      ],
      "name": "ERC721InvalidOperator",
      "type": "error"
    },
    {
      "inputs": [
        {
          "internalType": "address",
          "name": "owner",
          "type": "address"
        }
      ],
      "name": "ERC721InvalidOwner",
      "type": "error"
    },
    {
      "inputs": [
        {
          "internalType": "address",
          "name": "receiver",
          "type": "address"
        }
      ],
      "name": "ERC721InvalidReceiver",
      "type": "error"
    },
    {
      "inputs": [
        {
          "internalType": "address",
          "name": "sender",
          "type": "address"
        }
      ],
      "name": "ERC721InvalidSender",
      "type": "error"
    },
    {
      "inputs": [
        {
          "internalType": "uint256",
          "name": "tokenId",
          "type": "uint256"
        }
      ],
      "name": "ERC721NonexistentToken",
      "type": "error"
    },
    {
      "inputs": [],
      "name": "GradingSystem__AdminOnly",
      "type": "error"
    },
    {
      "anonymous": false,
      "inputs": [
        {
          "indexed": true,
          "internalType": "address",
          "name": "owner",
          "type": "address"
        },
        {
          "indexed": true,
          "internalType": "address",
          "name": "approved",
          "type": "address"
        },
        {
          "indexed": true,
          "internalType": "uint256",
          "name": "tokenId",
          "type": "uint256"
        }
      ],
      "name": "Approval",
      "type": "event"
    },
    {
      "anonymous": false,
      "inputs": [
        {
          "indexed": true,
          "internalType": "address",
          "name": "owner",
          "type": "address"
        },
        {
          "indexed": true,
          "internalType": "address",
          "name": "operator",
          "type": "address"
        },
        {
          "indexed": false,
          "internalType": "bool",
          "name": "approved",
          "type": "bool"
        }
      ],
      "name": "ApprovalForAll",
      "type": "event"
    },
    {
      "anonymous": false,
      "inputs": [
        {
          "indexed": false,
          "internalType": "uint256",
          "name": "_fromTokenId",
          "type": "uint256"
        },
        {
          "indexed": false,
          "internalType": "uint256",
          "name": "_toTokenId",
          "type": "uint256"
        }
      ],
      "name": "BatchMetadataUpdate",
      "type": "event"
    },
    {
      "anonymous": false,
      "inputs": [
        {
          "indexed": false,
          "internalType": "uint256",
          "name": "_tokenId",
          "type": "uint256"
        }
      ],
      "name": "MetadataUpdate",
      "type": "event"
    },
    {
      "anonymous": false,
      "inputs": [
        {
          "indexed": true,
          "internalType": "address",
          "name": "from",
          "type": "address"
        },
        {
          "indexed": true,
          "internalType": "address",
          "name": "to",
          "type": "address"
        },
        {
          "indexed": true,
          "internalType": "uint256",
          "name": "tokenId",
          "type": "uint256"
        }
      ],
      "name": "Transfer",
      "type": "event"
    },
    {
      "inputs": [
        {
          "internalType": "string",
          "name": "_courseId",
          "type": "string"
        },
        {
          "internalType": "string",
          "name": "_courseCode",
          "type": "string"
        },
        {
          "internalType": "string",
          "name": "_courseName",
          "type": "string"
        },
        {
          "internalType": "uint256",
          "name": "_year",
          "type": "uint256"
        },
        {
          "internalType": "uint256",
          "name": "_semester",
          "type": "uint256"
        },
        {
          "internalType": "uint256",
          "name": "_theoryCredits",
          "type": "uint256"
        },
        {
          "internalType": "uint256",
          "name": "_labCredits",
          "type": "uint256"
        },
        {
          "internalType": "uint256",
          "name": "_theoryISEWeightage",
          "type": "uint256"
        },
        {
          "internalType": "uint256",
          "name": "_theoryMSEWeightage",
          "type": "uint256"
        },
        {
          "internalType": "uint256",
          "name": "_theoryESEWeightage",
          "type": "uint256"
        },
        {
          "internalType": "uint256",
          "name": "_labISEWeightage",
          "type": "uint256"
        },
        {
          "internalType": "uint256",
          "name": "_labMSEWeightage",
          "type": "uint256"
        },
        {
          "internalType": "uint256",
          "name": "_labESEWeightage",
          "type": "uint256"
        }
      ],
      "name": "addCourse",
      "outputs": [],
      "stateMutability": "nonpayable",
      "type": "function"
    },
    {
      "inputs": [
        {
          "internalType": "string",
          "name": "_uid",
          "type": "string"
        },
        {
          "internalType": "string",
          "name": "_courseId",
          "type": "string"
        },
        {
          "internalType": "uint256",
          "name": "_marks",
          "type": "uint256"
        }
      ],
      "name": "addCourseMarks",
      "outputs": [],
      "stateMutability": "nonpayable",
      "type": "function"
    },
    {
      "inputs": [
        {
          "internalType": "string",
          "name": "_uid",
          "type": "string"
        },
        {
          "internalType": "uint256",
          "name": "_semester",
          "type": "uint256"
        },
        {
          "internalType": "string",
          "name": "_courseId",
          "type": "string"
        }
      ],
      "name": "addCourseToStudent",
      "outputs": [],
      "stateMutability": "nonpayable",
      "type": "function"
    },
    {
      "inputs": [
        {
          "internalType": "string",
          "name": "_uid",
          "type": "string"
        },
        {
          "internalType": "uint256",
          "name": "_semester",
          "type": "uint256"
        },
        {
          "internalType": "uint256",
          "name": "_sgpa",
          "type": "uint256"
        }
      ],
      "name": "addSGPA",
      "outputs": [],
      "stateMutability": "nonpayable",
      "type": "function"
    },
    {
      "inputs": [
        {
          "internalType": "string",
          "name": "_uid",
          "type": "string"
        },
        {
          "internalType": "string",
          "name": "_name",
          "type": "string"
        },
        {
          "internalType": "string",
          "name": "_branch",
          "type": "string"
        },
        {
          "internalType": "uint256",
          "name": "_currentSemester",
          "type": "uint256"
        },
        {
          "internalType": "uint256",
          "name": "_batch",
          "type": "uint256"
        },
        {
          "internalType": "string",
          "name": "_phone",
          "type": "string"
        },
        {
          "internalType": "string",
          "name": "_email",
          "type": "string"
        }
      ],
      "name": "addStudent",
      "outputs": [],
      "stateMutability": "nonpayable",
      "type": "function"
    },
    {
      "inputs": [
        {
          "internalType": "address",
          "name": "to",
          "type": "address"
        },
        {
          "internalType": "uint256",
          "name": "tokenId",
          "type": "uint256"
        }
      ],
      "name": "approve",
      "outputs": [],
      "stateMutability": "nonpayable",
      "type": "function"
    },
    {
      "inputs": [
        {
          "internalType": "address",
          "name": "owner",
          "type": "address"
        }
      ],
      "name": "balanceOf",
      "outputs": [
        {
          "internalType": "uint256",
          "name": "",
          "type": "uint256"
        }
      ],
      "stateMutability": "view",
      "type": "function"
    },
    {
      "inputs": [],
      "name": "getAllStudents",
      "outputs": [
        {
          "internalType": "string[]",
          "name": "",
          "type": "string[]"
        }
      ],
      "stateMutability": "view",
      "type": "function"
    },
    {
      "inputs": [
        {
          "internalType": "uint256",
          "name": "tokenId",
          "type": "uint256"
        }
      ],
      "name": "getApproved",
      "outputs": [
        {
          "internalType": "address",
          "name": "",
          "type": "address"
        }
      ],
      "stateMutability": "view",
      "type": "function"
    },
    {
      "inputs": [
        {
          "internalType": "string",
          "name": "_courseId",
          "type": "string"
        }
      ],
      "name": "getCourseDetails",
      "outputs": [
        {
          "components": [
            {
              "internalType": "string",
              "name": "courseId",
              "type": "string"
            },
            {
              "internalType": "string",
              "name": "courseCode",
              "type": "string"
            },
            {
              "internalType": "string",
              "name": "courseName",
              "type": "string"
            },
            {
              "internalType": "uint256",
              "name": "year",
              "type": "uint256"
            },
            {
              "internalType": "enum GradingSystem.courseSemester",
              "name": "semester",
              "type": "uint8"
            },
            {
              "internalType": "uint256",
              "name": "theoryCredits",
              "type": "uint256"
            },
            {
              "internalType": "uint256",
              "name": "labCredits",
              "type": "uint256"
            },
            {
              "internalType": "uint256",
              "name": "theoryISEWeightage",
              "type": "uint256"
            },
            {
              "internalType": "uint256",
              "name": "theoryMSEWeightage",
              "type": "uint256"
            },
            {
              "internalType": "uint256",
              "name": "theoryESEWeightage",
              "type": "uint256"
            },
            {
              "internalType": "uint256",
              "name": "labISEWeightage",
              "type": "uint256"
            },
            {
              "internalType": "uint256",
              "name": "labMSEWeightage",
              "type": "uint256"
            },
            {
              "internalType": "uint256",
              "name": "labESEWeightage",
              "type": "uint256"
            },
            {
              "internalType": "uint256",
              "name": "saScore",
              "type": "uint256"
            },
            {
              "internalType": "enum GradingSystem.courseMarksLockedState",
              "name": "areMarksLocked",
              "type": "uint8"
            },
            {
              "internalType": "string[]",
              "name": "students",
              "type": "string[]"
            }
          ],
          "internalType": "struct GradingSystem.Course",
          "name": "",
          "type": "tuple"
        }
      ],
      "stateMutability": "view",
      "type": "function"
    },
    {
      "inputs": [],
      "name": "getCourses",
      "outputs": [
        {
          "internalType": "string[]",
          "name": "",
          "type": "string[]"
        }
      ],
      "stateMutability": "view",
      "type": "function"
    },
    {
      "inputs": [
        {
          "internalType": "string",
          "name": "_uid",
          "type": "string"
        }
      ],
      "name": "getStudent",
      "outputs": [
        {
          "components": [
            {
              "internalType": "string",
              "name": "name",
              "type": "string"
            },
            {
              "internalType": "string",
              "name": "branch",
              "type": "string"
            },
            {
              "internalType": "string",
              "name": "uid",
              "type": "string"
            },
            {
              "internalType": "uint256",
              "name": "batch",
              "type": "uint256"
            },
            {
              "internalType": "string",
              "name": "email",
              "type": "string"
            },
            {
              "internalType": "string",
              "name": "phone",
              "type": "string"
            },
            {
              "internalType": "uint256",
              "name": "cgpa",
              "type": "uint256"
            },
            {
              "internalType": "uint256[]",
              "name": "sgpa",
              "type": "uint256[]"
            },
            {
              "internalType": "uint256[]",
              "name": "scorecards",
              "type": "uint256[]"
            },
            {
              "internalType": "uint256",
              "name": "currentSemester",
              "type": "uint256"
            },
            {
              "internalType": "string[][]",
              "name": "semCourses",
              "type": "string[][]"
            }
          ],
          "internalType": "struct GradingSystem.Student",
          "name": "",
          "type": "tuple"
        }
      ],
      "stateMutability": "view",
      "type": "function"
    },
    {
      "inputs": [
        {
          "internalType": "string",
          "name": "_uid",
          "type": "string"
        },
        {
          "internalType": "string",
          "name": "_courseId",
          "type": "string"
        }
      ],
      "name": "getStudentCourseMarks",
      "outputs": [
        {
          "internalType": "uint256",
          "name": "",
          "type": "uint256"
        }
      ],
      "stateMutability": "view",
      "type": "function"
    },
    {
      "inputs": [
        {
          "internalType": "uint256",
          "name": "_batch",
          "type": "uint256"
        },
        {
          "internalType": "string",
          "name": "_branch",
          "type": "string"
        }
      ],
      "name": "getStudents",
      "outputs": [
        {
          "internalType": "string[]",
          "name": "",
          "type": "string[]"
        }
      ],
      "stateMutability": "view",
      "type": "function"
    },
    {
      "inputs": [
        {
          "internalType": "address",
          "name": "owner",
          "type": "address"
        },
        {
          "internalType": "address",
          "name": "operator",
          "type": "address"
        }
      ],
      "name": "isApprovedForAll",
      "outputs": [
        {
          "internalType": "bool",
          "name": "",
          "type": "bool"
        }
      ],
      "stateMutability": "view",
      "type": "function"
    },
    {
      "inputs": [
        {
          "internalType": "string",
          "name": "_courseId",
          "type": "string"
        }
      ],
      "name": "lockCourseMarks",
      "outputs": [],
      "stateMutability": "nonpayable",
      "type": "function"
    },
    {
      "inputs": [],
      "name": "name",
      "outputs": [
        {
          "internalType": "string",
          "name": "",
          "type": "string"
        }
      ],
      "stateMutability": "view",
      "type": "function"
    },
    {
      "inputs": [
        {
          "internalType": "uint256",
          "name": "tokenId",
          "type": "uint256"
        }
      ],
      "name": "ownerOf",
      "outputs": [
        {
          "internalType": "address",
          "name": "",
          "type": "address"
        }
      ],
      "stateMutability": "view",
      "type": "function"
    },
    {
      "inputs": [
        {
          "internalType": "address",
          "name": "from",
          "type": "address"
        },
        {
          "internalType": "address",
          "name": "to",
          "type": "address"
        },
        {
          "internalType": "uint256",
          "name": "tokenId",
          "type": "uint256"
        }
      ],
      "name": "safeTransferFrom",
      "outputs": [],
      "stateMutability": "nonpayable",
      "type": "function"
    },
    {
      "inputs": [
        {
          "internalType": "address",
          "name": "from",
          "type": "address"
        },
        {
          "internalType": "address",
          "name": "to",
          "type": "address"
        },
        {
          "internalType": "uint256",
          "name": "tokenId",
          "type": "uint256"
        },
        {
          "internalType": "bytes",
          "name": "data",
          "type": "bytes"
        }
      ],
      "name": "safeTransferFrom",
      "outputs": [],
      "stateMutability": "nonpayable",
      "type": "function"
    },
    {
      "inputs": [
        {
          "internalType": "address",
          "name": "operator",
          "type": "address"
        },
        {
          "internalType": "bool",
          "name": "approved",
          "type": "bool"
        }
      ],
      "name": "setApprovalForAll",
      "outputs": [],
      "stateMutability": "nonpayable",
      "type": "function"
    },
    {
      "inputs": [
        {
          "internalType": "bytes4",
          "name": "interfaceId",
          "type": "bytes4"
        }
      ],
      "name": "supportsInterface",
      "outputs": [
        {
          "internalType": "bool",
          "name": "",
          "type": "bool"
        }
      ],
      "stateMutability": "view",
      "type": "function"
    },
    {
      "inputs": [],
      "name": "symbol",
      "outputs": [
        {
          "internalType": "string",
          "name": "",
          "type": "string"
        }
      ],
      "stateMutability": "view",
      "type": "function"
    },
    {
      "inputs": [
        {
          "internalType": "uint256",
          "name": "tokenId",
          "type": "uint256"
        }
      ],
      "name": "tokenURI",
      "outputs": [
        {
          "internalType": "string",
          "name": "",
          "type": "string"
        }
      ],
      "stateMutability": "view",
      "type": "function"
    },
    {
      "inputs": [
        {
          "internalType": "address",
          "name": "from",
          "type": "address"
        },
        {
          "internalType": "address",
          "name": "to",
          "type": "address"
        },
        {
          "internalType": "uint256",
          "name": "tokenId",
          "type": "uint256"
        }
      ],
      "name": "transferFrom",
      "outputs": [],
      "stateMutability": "nonpayable",
      "type": "function"
    },
    {
      "inputs": [
        {
          "internalType": "string",
          "name": "_uid",
          "type": "string"
        },
        {
          "internalType": "uint256",
          "name": "_cgpa",
          "type": "uint256"
        }
      ],
      "name": "updateCGPA",
      "outputs": [],
      "stateMutability": "nonpayable",
      "type": "function"
    },
    {
      "inputs": [
        {
          "internalType": "string",
          "name": "_uid",
          "type": "string"
        },
        {
          "internalType": "uint256",
          "name": "_semester",
          "type": "uint256"
        },
        {
          "internalType": "string",
          "name": "_scorecardURI",
          "type": "string"
        }
      ],
      "name": "uploadScorecard",
      "outputs": [],
      "stateMutability": "nonpayable",
      "type": "function"
    }
  ],
  "bytecode": "0x6080346200031e576001600160401b03906040908082018381118282101762000308578252600e81526020906d47726164696e672053797374656d60901b828201528251938385018581108282111762000308578452600985526814d8dbdc9958d85c9960ba1b83860152815181811162000308576000938454916001948584811c94168015620002fd575b83851014620002e9578190601f9485811162000296575b5083908583116001146200023257889262000226575b5050600019600383901b1c191690851b1785555b8651928311620002125783548481811c9116801562000207575b82821014620001f357828111620001ab575b50809183116001146200014457508394958293949262000138575b5050600019600383901b1c191690821b1790555b60075551612f6e9081620003248239f35b01519050388062000113565b90601f198316968486528286209286905b8982106200019357505083859697981062000179575b505050811b01905562000127565b015160001960f88460031b161c191690553880806200016b565b80878596829496860151815501950193019062000155565b8486528186208380860160051c820192848710620001e9575b0160051c019085905b828110620001dd575050620000f8565b878155018590620001cd565b92508192620001c4565b634e487b7160e01b86526022600452602486fd5b90607f1690620000e6565b634e487b7160e01b85526041600452602485fd5b015190503880620000b8565b8880528489208894509190601f1984168a5b878282106200027f575050841162000265575b505050811b018555620000cc565b015160001960f88460031b161c1916905538808062000257565b8385015186558b9790950194938401930162000244565b9091508780528388208580850160051c820192868610620002df575b918991869594930160051c01915b828110620002d0575050620000a2565b8a8155859450899101620002c0565b92508192620002b2565b634e487b7160e01b87526022600452602487fd5b93607f16936200008b565b634e487b7160e01b600052604160045260246000fd5b600080fdfe608080604052600436101561001357600080fd5b60003560e01c90816301ffc9a71461258b5750806302c06a0c1461219c57806306fdde03146120f9578063081812fc146120bb578063095ea7b314611fd4578063108b024a1461195357806312bcc26e146118d45780631eec6b861461185e57806323b872dd146118475780632f76ade3146117f357806342842e0e146117c557806353f5c1851461151b5780635c4a427e14610aab5780636352211e14610a7b57806370a0823114610a225780638bd61bec1461096157806395d89b411461089c5780639df3bb0a14610829578063a22cb46514610784578063b6cbe302146106e5578063b88d4fde1461067b578063c87b56dd14610622578063cc1264791461058b578063d0296612146102b3578063d15ed9131461023e578063e985e9c5146101e85763e9e309271461014857600080fd5b346101e35760003660031901126101e357600f5461016581612c69565b9061017360405192836126ac565b808252600f6000908152602091907f8d1108e10bcb7c27dddfc02ed9d693a074039d026cf4ea4240b40f7d581ac802838086015b8484106101c557604051828152806101c18185018a6127b1565b0390f35b60019182916101d3856128ba565b81520192019201919084906101a7565b600080fd5b346101e35760403660031901126101e357610201612785565b61020961279b565b9060018060a01b03809116600052600560205260406000209116600052602052602060ff604060002054166040519015158152f35b346101e35760603660031901126101e3576004356001600160401b0381116101e35761029760076102766102b1933690600401612610565b60405192918190843782019160088352602081602435940301902001612d85565b6044359082549060031b91821b91600019901b1916179055565b005b346101e35760203660031901126101e3576004356001600160401b0381116101e3576102e56020913690600401612610565b919060606101406040516102f881612659565b82815282858201528260408201526000838201528260808201528260a0820152600060c08201528260e08201528261010082015260006101208201520152826040519384928337810160088152030190206040519061035682612659565b61035f816128ba565b825261036d600182016128ba565b602083015261037e600282016128ba565b604083015260038101546060830152610399600482016128ba565b60808301526103aa600582016128ba565b60a0830152600681015460c08301526103c560078201612e94565b60e08301526103d660088201612e94565b6101008301526009810154610120830152600a8101546103f581612c69565b9161040360405193846126ac565b818352600a60208401910160005260206000206000915b83831061056e5785856101408201526040518091602082526101406104fa6104e26104c16104ab61048b61047561045f885161016060208c01526101808b0190612760565b60208901518a8203601f190160408c0152612760565b6040880151898203601f190160608b0152612760565b606087015160808901526080870151601f198983030160a08a0152612760565b60a0860151878203601f190160c0890152612760565b60c085015160e087015260e0850151601f198783030161010088015261284c565b610100840151858203601f190161012087015261284c565b9161012081015182850152015190601f1983820301610160840152815180825260208201916020808360051b8301019401926000915b83831061053d5786860387f35b91939550919360208061055c600193601f1986820301875289516127b1565b97019301930190928695949293610530565b60016020819261057d85612ee3565b81520192019201919061041a565b346101e35760003660031901126101e357600b546105a881612c69565b906105b660405192836126ac565b808252600b6000908152602091907f0175b7a638427703f0dbe7bb9bbf987a2551717b34e79f33b5b1008d1fa01db9838086015b84841061060457604051828152806101c18185018a6127b1565b6001918291610612856128ba565b81520192019201919084906105ea565b346101e35760203660031901126101e35760043561063f81612ae6565b5060005260066020526101c161065860406000206128ba565b600060405161066681612675565b52604051918291602083526020830190612760565b346101e35760803660031901126101e357610694612785565b61069c61279b565b90604435606435926001600160401b0384116101e357366023850112156101e3576106d46102b19436906024816004013591016126e8565b926106e0838383612960565b612b21565b346101e35760203660031901126101e3576004356001600160401b0381116101e357610715903690600401612610565b33600052600d60205260ff60406000205416600381101561076e5760020361075c576020600e92826040519384928337600a9082019081520301902001805460ff19169055005b6040516389a5d88b60e01b8152600490fd5b634e487b7160e01b600052602160045260246000fd5b346101e35760403660031901126101e35761079d612785565b602435908115158092036101e3576001600160a01b031690811561081057336000526005602052604060002082600052602052604060002060ff1981541660ff83161790556040519081527f17307eab39ab6107e8899845ad3d59bd9653f200f220920489ca2b5937696c3160203392a3005b604051630b61174360e31b815260048101839052602490fd5b346101e35760603660031901126101e3576001600160401b036004358181116101e35761085a903690600401612610565b6024929192359182116101e357610878610899923690600401612610565b909180604051958637840193600c8552602081604435960301902091612c80565b55005b346101e35760003660031901126101e357604051600090600180546108c081612880565b8084529082811690811561093957506001146108fb575b6101c1836108e7818703826126ac565b604051918291602083526020830190612760565b92508060005260209283600020916000925b828410610926575050508101909101906108e7816108d7565b805485850187015292850192810161090d565b6101c195506108e793506020915091849260ff191682840152151560051b82010193506108d7565b346101e35760603660031901126101e3576001600160401b036004358181116101e357610992903690600401612610565b90602435926044359081116101e3576109af903690600401612610565b600a604095929551858582376020818781016008815203019020016000198301928311610a0c57856109f3836102b1986109ed600f97602096612d85565b50612d9d565b8260405193849283378101600a81520301902001612d9d565b634e487b7160e01b600052601160045260246000fd5b346101e35760203660031901126101e3576001600160a01b03610a43612785565b168015610a625760005260036020526020604060002054604051908152f35b6040516322718ad960e21b815260006004820152602490fd5b346101e35760203660031901126101e3576020610a99600435612ae6565b6040516001600160a01b039091168152f35b346101e35760e03660031901126101e3576004356001600160401b0381116101e357610adb903690600401612610565b6024356001600160401b0381116101e357610afa903690600401612610565b6044356001600160401b0381116101e357610b19903690600401612610565b91909260a4356001600160401b0381116101e357610b3b903690600401612610565b60c4356001600160401b0381116101e357610b5a903690600401612610565b92909160405192610b6a84612690565b6008845261010036602086013760405194610b8486612690565b6008865261010036602088013760405196610b9e88612675565b6000885260405198610baf8a612659565b3690610bba926126e8565b8852610bc7368a8c6126e8565b6020890152610bd7368c8e6126e8565b604089015260843560608901523690610bef926126e8565b60808701523690610bff926126e8565b60a0850152600060c085015260e08401526101008301526064356101208301526101408201526040518486823780858101600881520360200190209080518051906001600160401b038211611048578190610c6482610c5e8754612880565b87612cb0565b602090601f83116001146114af576000926114a4575b50508160011b916000199060031b1c19161782555b60208101518051906001600160401b038211611048578190610cc182610cb86001880154612880565b60018801612cb0565b602090601f831160011461143257600092611427575b50508160011b916000199060031b1c19161760018301555b60408101518051906001600160401b038211611048578190610d2182610d186002880154612880565b60028801612cb0565b602090601f83116001146113b5576000926113aa575b50508160011b916000199060031b1c19161760028301555b6060810151600383015560808101518051906001600160401b038211611048578190610d8b82610d826004880154612880565b60048801612cb0565b602090601f83116001146113385760009261132d575b50508160011b916000199060031b1c19161760048301555b60a08101518051906001600160401b038211611048578190610deb82610de26005880154612880565b60058801612cb0565b602090601f83116001146112bb576000926112b0575b50508160011b916000199060031b1c19161760058301555b60c0810151600683015560e08101518051906001600160401b03821161104857600160401b8211611048576020906007850154836007870155808410611290575b500160078401600052602060002060005b83811061127c57505050506101008101518051906001600160401b03821161104857600160401b821161104857602090600885015483600887015580841061125c575b500160088401600052602060002060005b838110611248575050506101208201516009840155506101400151805190600160401b821161104857600a83015482600a8501558083106111a0575b5091859391600a6020899501920160005260206000206000925b8284106110745750505050610f4393610f3e916084356000526009602052604060002091612c80565b612d9d565b600f54600160401b811015611048576001810180600f5581101561105e57600f6000527f8d1108e10bcb7c27dddfc02ed9d693a074039d026cf4ea4240b40f7d581ac80201906001600160401b03811161104857610fab81610fa58454612880565b84612cb0565b6000601f8211600114610fe657819293600092610fdb575b5050600019600383901b1c191660019190911b179055005b013590508380610fc3565b601f198216938360005260206000209160005b8681106110305750836001959610611016575b505050811b019055005b0135600019600384901b60f8161c1916905583808061100c565b90926020600181928686013581550194019101610ff9565b634e487b7160e01b600052604160045260246000fd5b634e487b7160e01b600052603260045260246000fd5b919395509193508051602081519161108c8386612cf5565b01908360005260206000206000925b8284106110bd5750505050600160208192019201930190918793879593610f15565b80518051906001600160401b038211611048576110e4826110de8654612880565b86612cb0565b602090601f8311600114611130579282600194936020938695600092611125575b5050600019600383901b1c191690841b1785555b0192019301929061109b565b015190503880611105565b908460005260206000209160005b601f1985168110611188575083602093600196938796938794601f1981161061116f575b505050811b018555611119565b015160001960f88460031b161c19169055388080611162565b9192602060018192868501518155019401920161113e565b600a84016000526020600020908382015b81830181106111c1575050610efb565b805460008255806111d6575b506001016111b1565b816000526020600020908101905b8181106111f157506111cd565b806111fe60019254612880565b8061120b575b50016111e4565b601f811183146112215750600081555b8d611204565b60009082825261123f601f60208420920160051c8201858301612c99565b8183555561121b565b600190602084519401938184015501610ebf565b611276906008870160005284846000209182019101612c99565b89610eae565b600190602084519401938184015501610e6b565b6112aa906007870160005284846000209182019101612c99565b89610e5a565b015190508880610e01565b9250600585016000526020600020906000935b601f1984168510611312576001945083601f198116106112f9575b505050811b016005830155610e19565b015160001960f88460031b161c191690558880806112e9565b818101518355602094850194600190930192909101906112ce565b015190508880610da1565b9250600485016000526020600020906000935b601f198416851061138f576001945083601f19811610611376575b505050811b016004830155610db9565b015160001960f88460031b161c19169055888080611366565b8181015183556020948501946001909301929091019061134b565b015190508880610d37565b9250600285016000526020600020906000935b601f198416851061140c576001945083601f198116106113f3575b505050811b016002830155610d4f565b015160001960f88460031b161c191690558880806113e3565b818101518355602094850194600190930192909101906113c8565b015190508880610cd7565b9250600185016000526020600020906000935b601f1984168510611489576001945083601f19811610611470575b505050811b016001830155610cef565b015160001960f88460031b161c19169055888080611460565b81810151835560209485019460019093019290910190611445565b015190508880610c7a565b9250846000526020600020906000935b601f1984168510611500576001945083601f198116106114e7575b505050811b018255610c8f565b015160001960f88460031b161c191690558880806114da565b818101518355602094850194600190930192909101906114bf565b346101e35760203660031901126101e3576004356001600160401b0381116101e35760206115506101c1923690600401612610565b919060606101e06040516115638161263d565b828152828582015282604082015260008382015260006080820152600060a0820152600060c0820152600060e08201526000610100820152600061012082015260006101408201526000610160820152600061018082015260006101a082015260006101c082015201528260405193849283378101600a8152030190206116bc600f604051926115f28461263d565b6115fb816128ba565b8452611609600182016128ba565b602085015261161a600282016128ba565b60408501526003810154606085015260ff60048201541661163a81612842565b6080850152600581015460a0850152600681015460c0850152600781015460e085015260088101546101008501526009810154610120850152600a810154610140850152600b810154610160850152600c810154610180850152600d8101546101a085015260ff600e820154166116b081612842565b6101c085015201612ee3565b6101e0820152604051918291602083526101e06117196117036116ed84516102006020890152610220880190612760565b6020850151878203601f19016040890152612760565b6040840151868203601f19016060880152612760565b9160608101516080860152608081015161173281612842565b60a086015260a081015160c086015260c081015160e086015260e08101516101008601526101008101516101208601526101208101516101408601526101408101516101608601526101608101516101808601526101808101516101a08601526101a08101516101c08601526101c08101516117ad81612842565b858301520151838203601f19016102008501526127b1565b346101e3576102b16117d63661280d565b90604051926117e484612675565b600084526106e0838383612960565b346101e35760403660031901126101e3576004356001600160401b0381116101e3576118256006913690600401612610565b6040519291819084378201916008835260208160243594030190200155600080f35b346101e3576102b16118583661280d565b91612960565b346101e35760403660031901126101e3576001600160401b036004358181116101e35761188f903690600401612610565b906024359283116101e35760206118cb926118af82953690600401612610565b9290938260405193849283378101600c81520301902091612c80565b54604051908152f35b346101e35760403660031901126101e3576024356001600160401b0381116101e35761193f611931602061190f6101c194369060040161271f565b600435600052600982526040600020826040519483868095519384920161273d565b820190815203019020612ee3565b6040519182916020835260208301906127b1565b346101e3576101a03660031901126101e3576004356001600160401b0381116101e357611984903690600401612610565b6024356001600160401b0381116101e3576119a3903690600401612610565b906044356001600160401b0381116101e3576119c6611a12913690600401612610565b6119d1608435612842565b611a06604051946119e186612675565b60008652604051966119f28861263d565b6119fd368a8c6126e8565b885236916126e8565b602086015236916126e8565b60408301526064356060830152611a2a608435612842565b608435608083015260a43560a083015260c43560c083015260e43560e08301526101043561010083015261012435610120830152610144356101408301526101643561016083015261018435610180830152605a6101a083015260016101c08301526101e082015260405182848237602081848101600a81520301902081518051906001600160401b038211611048578190611aca826110de8654612880565b602090601f8311600114611f6857600092611f5d575b50508160011b916000199060031b1c19161781555b60208201518051906001600160401b038211611048578190611b2782611b1e6001870154612880565b60018701612cb0565b602090601f8311600114611eeb57600092611ee0575b50508160011b916000199060031b1c19161760018201555b60408201518051906001600160401b03821161104857611b8582611b7c6002860154612880565b60028601612cb0565b602090601f8311600114611e6a5791806101e09492600f94600092611e5f575b50508160011b916000199060031b1c19161760028201555b60608401516003820155608084015160048201611bd982612842565b611be282612842565b60ff199160ff83835416911617905560a0850151600583015560c0850151600683015560e0850151600783015561010085015160088301556101208501516009830155610140850151600a830155610160850151600b830155610180850151600c8301556101a0850151600d830155600e82019060ff6101c087015191611c6883612842565b611c7183612842565b8354169116179055019101516020815191611c8c8385612cf5565b01916000526020600020916000905b828210611d7c578585600b54600160401b811015611048576001810180600b5581101561105e57600b6000527f0175b7a638427703f0dbe7bb9bbf987a2551717b34e79f33b5b1008d1fa01db901906001600160401b03811161104857611d0681610fa58454612880565b6000601f8211600114611d3557819293600092610fdb575050600019600383901b1c191660019190911b179055005b601f198216938360005260206000209160005b868110611d64575083600195961061101657505050811b019055005b90926020600181928686013581550194019101611d48565b80518051906001600160401b03821161104857611da382611d9d8854612880565b88612cb0565b602090601f8311600114611def579282600194936020938695600092611de4575b5050600019600383901b1c191690841b1787555b01940191019092611c9b565b015190508b80611dc4565b908660005260206000209160005b601f1985168110611e47575083602093600196938796938794601f19811610611e2e575b505050811b018755611dd8565b015160001960f88460031b161c191690558b8080611e21565b91926020600181928685015181550194019201611dfd565b015190508880611ba5565b906002840160005260206000209160005b601f1985168110611ec85750926101e09492600192600f9583601f19811610611eaf575b505050811b016002820155611bbd565b015160001960f88460031b161c19169055888080611e9f565b91926020600181928685015181550194019201611e7b565b015190508680611b3d565b9250600184016000526020600020906000935b601f1984168510611f42576001945083601f19811610611f29575b505050811b016001820155611b55565b015160001960f88460031b161c19169055868080611f19565b81810151835560209485019460019093019290910190611efe565b015190508680611ae0565b9250836000526020600020906000935b601f1984168510611fb9576001945083601f19811610611fa0575b505050811b018155611af5565b015160001960f88460031b161c19169055868080611f93565b81810151835560209485019460019093019290910190611f78565b346101e35760403660031901126101e357611fed612785565b602435611ff981612ae6565b331515806120a8575b8061207b575b612063576001600160a01b039283169282918491167f8c5be1e5ebec7d5bd14f71427d1e84f3dd0314c0f7b2291e5b200ac8c7c3b925600080a4600090815260046020526040902080546001600160a01b0319169091179055005b60405163a9fbf51f60e01b8152336004820152602490fd5b5060018060a01b038116600052600560205260406000203360005260205260ff6040600020541615612008565b506001600160a01b038116331415612002565b346101e35760203660031901126101e3576004356120d881612ae6565b506000526004602052602060018060a01b0360406000205416604051908152f35b346101e35760003660031901126101e35760405160009060005461211c81612880565b8083526001918083169081156109395750600114612144576101c1836108e7818703826126ac565b600080805260209450917f290decd9548b62a8d60345a988386fc84ba6bc95484008f6362f93160ef3e5635b828410612189575050508101909101906108e7816108d7565b8054858501870152928501928101612170565b346101e35760603660031901126101e3576001600160401b036004358181116101e3576121cd903690600401612610565b90916044358181116101e3576121e790369060040161271f565b9260075491604051946121f986612675565b60008652331561257257836000526020936002855260018060a01b0360406000205416968715158061253f575b3360008181526003895260408082208054600190810190915586835260028b5290822080546001600160a01b031916841790559a8592917fddf252ad1be2c89b69c2b068fc378daa952ba7f163c4a11628f55a4df523b3ef9080a461252657333b61240d575b50506007549182600052600685526040600020918051918211611048576122bd826122b78554612880565b85612cb0565b8590601f8311600114612376579580946008948461234098957ff8e1a15aba9398e019f0b49df1a4fde98ee17ae345cb5f6b5e2c27f5033e8ce7956123599c9b60009261236b575b5050600019600383901b1c1916908c1b1790555b604051908152a1600754948060405192833781019282845281602435940301902001612d85565b90919082549060031b91821b91600019901b1916179055565b6007546000198114610a0c5701600755005b015190508d80612305565b889291601f1983169185600052886000209260005b8181106123f6575094848a9893946123599c9b95600899947ff8e1a15aba9398e019f0b49df1a4fde98ee17ae345cb5f6b5e2c27f5033e8ce7986123409d9a106123dd575b505050811b019055612319565b015160001960f88460031b161c191690558d80806123d0565b8284015185558c9690940193928a01928a0161238b565b8561244c916040999897995180938192630a85bd0160e11b96878452336004850152600060248501526044840152608060648401526084830190612760565b03816000335af1600091816124e6575b506124b457873d156124ad573d612472816126cd565b9061248060405192836126ac565b81523d60008383013e5b805191826124aa57604051633250574960e11b8152336004820152602490fd5b01fd5b606061248a565b959694956001600160e01b031916036124ce57868061228c565b604051633250574960e11b8152336004820152602490fd5b9091508881813d831161251f575b6124fe81836126ac565b810103126101e357516001600160e01b0319811681036101e357908961245c565b503d6124f4565b6040516339e3563760e11b815260006004820152602490fd5b60008381526004602052604080822080546001600160a01b03191690558a82526003895290208054600019019055612226565b604051633250574960e11b815260006004820152602490fd5b346101e35760203660031901126101e3576004359063ffffffff60e01b82168092036101e357602091632483248360e11b81149081156125cd575b5015158152f35b6380ac58cd60e01b8114915081156125ff575b81156125ee575b50836125c6565b6301ffc9a760e01b149050836125e7565b635b5e139f60e01b811491506125e0565b9181601f840112156101e3578235916001600160401b0383116101e357602083818601950101116101e357565b61020081019081106001600160401b0382111761104857604052565b61016081019081106001600160401b0382111761104857604052565b602081019081106001600160401b0382111761104857604052565b61012081019081106001600160401b0382111761104857604052565b90601f801991011681019081106001600160401b0382111761104857604052565b6001600160401b03811161104857601f01601f191660200190565b9291926126f4826126cd565b9161270260405193846126ac565b8294818452818301116101e3578281602093846000960137010152565b9080601f830112156101e35781602061273a933591016126e8565b90565b60005b8381106127505750506000910152565b8181015183820152602001612740565b906020916127798151809281855285808601910161273d565b601f01601f1916010190565b600435906001600160a01b03821682036101e357565b602435906001600160a01b03821682036101e357565b908082519081815260208091019281808460051b8301019501936000915b8483106127df5750505050505090565b90919293949584806127fd600193601f198682030187528a51612760565b98019301930191949392906127cf565b60609060031901126101e3576001600160a01b039060043582811681036101e3579160243590811681036101e3579060443590565b6002111561076e57565b90815180825260208080930193019160005b82811061286c575050505090565b83518552938101939281019260010161285e565b90600182811c921680156128b0575b602083101461289a57565b634e487b7160e01b600052602260045260246000fd5b91607f169161288f565b90604051918260008254926128ce84612880565b90818452600194858116908160001461293d57506001146128fa575b50506128f8925003836126ac565b565b9093915060005260209081600020936000915b8183106129255750506128f8935082010138806128ea565b8554888401850152948501948794509183019161290d565b9150506128f894506020925060ff191682840152151560051b82010138806128ea565b6001600160a01b03918216929091831561257257600092828452826020956002875260409684888820541696879133151580612a50575b509060027fddf252ad1be2c89b69c2b068fc378daa952ba7f163c4a11628f55a4df523b3ef9284612a1d575b858352600381528b8320805460010190558683525289812080546001600160a01b0319168517905580a416928383036129fc5750505050565b6064945051926364283d7b60e01b8452600484015260248301526044820152fd5b600087815260046020526040902080546001600160a01b0319169055848352600381528b832080546000190190556129c3565b91939450915080612aa5575b15612a6c57859291879138612997565b878688612a89576024915190637e27328960e01b82526004820152fd5b604491519063177e802f60e01b82523360048301526024820152fd5b503387148015612aca575b80612a5c5750858252600481523385898420541614612a5c565b5086825260058152878220338352815260ff8883205416612ab0565b6000818152600260205260409020546001600160a01b0316908115612b09575090565b60249060405190637e27328960e01b82526004820152fd5b813b612b2e575b50505050565b604051630a85bd0160e11b8082523360048301526001600160a01b03928316602483015260448201949094526080606482015260209592909116939092908390612b7c906084830190612760565b039285816000958187895af1849181612c25575b50612bf0575050503d600014612be8573d612baa816126cd565b90612bb860405192836126ac565b81528091843d92013e5b80519283612be357604051633250574960e11b815260048101849052602490fd5b019050fd5b506060612bc2565b919450915063ffffffff60e01b1603612c0d575038808080612b28565b60249060405190633250574960e11b82526004820152fd5b9091508681813d8311612c62575b612c3d81836126ac565b81010312612c5e57516001600160e01b031981168103612c5e579038612b90565b8480fd5b503d612c33565b6001600160401b0381116110485760051b60200190565b6020919283604051948593843782019081520301902090565b818110612ca4575050565b60008155600101612c99565b9190601f8111612cbf57505050565b6128f8926000526020600020906020601f840160051c83019310612ceb575b601f0160051c0190612c99565b9091508190612cde565b600160401b821161104857805491808255828110612d1257505050565b600091825260209081832093840193015b838110612d305750505050565b8083612d3e60019354612880565b80612d4c575b505001612d23565b601f8082118514612d6357505081555b8338612d44565b612d7c90848452868420920160051c8201858301612c99565b81835555612d5c565b805482101561105e5760005260206000200190600090565b90918154600160401b81101561104857612dbe906001938482018155612d85565b939093612e7e576001600160401b03821161104857612de1826110de8654612880565b600090601f8311600114612e1b57928293918392600094612e10575b50501b916000199060031b1c1916179055565b013592503880612dfd565b601f19831691858152836020938483209483905b88838310612e645750505010612e4a575b505050811b019055565b0135600019600384901b60f8161c19169055388080612e40565b868601358855909601959384019387935090810190612e2f565b634e487b7160e01b600052600060045260246000fd5b9060405191828154918282526020928383019160005283600020936000905b828210612ec9575050506128f8925003836126ac565b855484526001958601958895509381019390910190612eb3565b908154612eef81612c69565b92612efd60405194856126ac565b818452600090815260208082208186015b848410612f1c575050505050565b6001838192612f2a856128ba565b815201920193019290612f0e56fea2646970667358221220bd9f8f05077728cbeb5cf242510e83b4788f1d17ff72a91f1a4c5b9be71bc0b364736f6c63430008140033",
  "linkReferences": {},
  "deployedLinkReferences": {}
}